{
  "address": "0xCf7Ed3AccA5a467e9e704C703E8D87F634fB0Fc9",
  "abi": [
    {
      "inputs": [
        {
          "internalType": "address",
          "name": "vrfCoordinator",
          "type": "address"
        },
        {
          "internalType": "uint256",
          "name": "minEth",
          "type": "uint256"
        },
        {
          "internalType": "bytes32",
          "name": "gasLane",
          "type": "bytes32"
        },
        {
          "internalType": "uint64",
          "name": "subscriptionId",
          "type": "uint64"
        },
        {
          "internalType": "uint32",
          "name": "callbackGasLimit",
          "type": "uint32"
        },
        {
          "internalType": "uint256",
          "name": "interval",
          "type": "uint256"
        }
      ],
      "stateMutability": "nonpayable",
      "type": "constructor"
    },
    {
      "inputs": [
        {
          "internalType": "address",
          "name": "have",
          "type": "address"
        },
        {
          "internalType": "address",
          "name": "want",
          "type": "address"
        }
      ],
      "name": "OnlyCoordinatorCanFulfill",
      "type": "error"
    },
    {
      "inputs": [],
      "name": "Raffle_NotOpen",
      "type": "error"
    },
    {
      "inputs": [],
      "name": "Raffle__EthNotEnough",
      "type": "error"
    },
    {
      "inputs": [],
      "name": "Raffle__SendingEthFailed",
      "type": "error"
    },
    {
      "inputs": [
        {
          "internalType": "uint256",
          "name": "balance",
          "type": "uint256"
        },
        {
          "internalType": "uint256",
          "name": "players",
          "type": "uint256"
        },
        {
          "internalType": "uint256",
          "name": "raffleState",
          "type": "uint256"
        }
      ],
      "name": "Raffle__UpKeepNotNeeded",
      "type": "error"
    },
    {
      "anonymous": false,
      "inputs": [
        {
          "indexed": true,
          "internalType": "address",
          "name": "player",
          "type": "address"
        }
      ],
      "name": "RaffleEnter",
      "type": "event"
    },
    {
      "anonymous": false,
      "inputs": [
        {
          "indexed": true,
          "internalType": "uint256",
          "name": "requestId",
          "type": "uint256"
        }
      ],
      "name": "RequestedRaffleWinner",
      "type": "event"
    },
    {
      "anonymous": false,
      "inputs": [
        {
          "indexed": true,
          "internalType": "address",
          "name": "winner",
          "type": "address"
        }
      ],
      "name": "WinnerPicked",
      "type": "event"
    },
    {
      "inputs": [
        {
          "internalType": "bytes",
          "name": "",
          "type": "bytes"
        }
      ],
      "name": "checkUpkeep",
      "outputs": [
        {
          "internalType": "bool",
          "name": "upkeepNeeded",
          "type": "bool"
        },
        {
          "internalType": "bytes",
          "name": "",
          "type": "bytes"
        }
      ],
      "stateMutability": "view",
      "type": "function"
    },
    {
      "inputs": [],
      "name": "enterRaffle",
      "outputs": [],
      "stateMutability": "payable",
      "type": "function"
    },
    {
      "inputs": [],
      "name": "getEntranceFee",
      "outputs": [
        {
          "internalType": "uint256",
          "name": "",
          "type": "uint256"
        }
      ],
      "stateMutability": "view",
      "type": "function"
    },
    {
      "inputs": [],
      "name": "getInterval",
      "outputs": [
        {
          "internalType": "uint256",
          "name": "",
          "type": "uint256"
        }
      ],
      "stateMutability": "view",
      "type": "function"
    },
    {
      "inputs": [],
      "name": "getLatestTimestamp",
      "outputs": [
        {
          "internalType": "uint256",
          "name": "",
          "type": "uint256"
        }
      ],
      "stateMutability": "view",
      "type": "function"
    },
    {
      "inputs": [],
      "name": "getNumWords",
      "outputs": [
        {
          "internalType": "uint256",
          "name": "",
          "type": "uint256"
        }
      ],
      "stateMutability": "pure",
      "type": "function"
    },
    {
      "inputs": [],
      "name": "getNumberOfPlayers",
      "outputs": [
        {
          "internalType": "uint256",
          "name": "",
          "type": "uint256"
        }
      ],
      "stateMutability": "view",
      "type": "function"
    },
    {
      "inputs": [
        {
          "internalType": "uint256",
          "name": "index",
          "type": "uint256"
        }
      ],
      "name": "getPlayer",
      "outputs": [
        {
          "internalType": "address",
          "name": "",
          "type": "address"
        }
      ],
      "stateMutability": "view",
      "type": "function"
    },
    {
      "inputs": [],
      "name": "getRaffleState",
      "outputs": [
        {
          "internalType": "enum Raffle.RaffleState",
          "name": "",
          "type": "uint8"
        }
      ],
      "stateMutability": "view",
      "type": "function"
    },
    {
      "inputs": [],
      "name": "getRecentWinner",
      "outputs": [
        {
          "internalType": "address",
          "name": "",
          "type": "address"
        }
      ],
      "stateMutability": "view",
      "type": "function"
    },
    {
      "inputs": [],
      "name": "i_interval",
      "outputs": [
        {
          "internalType": "uint256",
          "name": "",
          "type": "uint256"
        }
      ],
      "stateMutability": "view",
      "type": "function"
    },
    {
      "inputs": [
        {
          "internalType": "bytes",
          "name": "",
          "type": "bytes"
        }
      ],
      "name": "performUpkeep",
      "outputs": [],
      "stateMutability": "nonpayable",
      "type": "function"
    },
    {
      "inputs": [
        {
          "internalType": "uint256",
          "name": "requestId",
          "type": "uint256"
        },
        {
          "internalType": "uint256[]",
          "name": "randomWords",
          "type": "uint256[]"
        }
      ],
      "name": "rawFulfillRandomWords",
      "outputs": [],
      "stateMutability": "nonpayable",
      "type": "function"
    },
    {
      "inputs": [],
      "name": "s_lastTimeStamp",
      "outputs": [
        {
          "internalType": "uint256",
          "name": "",
          "type": "uint256"
        }
      ],
      "stateMutability": "view",
      "type": "function"
    }
  ],
  "transactionHash": "0x6ec41f845d50878de2b749d2c118b190f9ba536735c3eb1c2689fb0f7dff6f39",
  "args": [
    "0x5FbDB2315678afecb367f032d93F642f64180aa3",
    "500000000",
    "0x9fe0eebf5e446e3c998ec9bb19951541aee00bb90ea201ae456421a2ded86805",
    "1",
    1000000,
    30
  ],
  "numDeployments": 1,
  "solcInputHash": "e3a674c2251c4d0fbc0e9577926c4ff9",
  "bytecode": "0x6101806040523480156200001257600080fd5b5060405162001a5e38038062001a5e8339818101604052810190620000389190620002c8565b858073ffffffffffffffffffffffffffffffffffffffff1660808173ffffffffffffffffffffffffffffffffffffffff1681525050508573ffffffffffffffffffffffffffffffffffffffff1660a08173ffffffffffffffffffffffffffffffffffffffff16815250508460e081815250503373ffffffffffffffffffffffffffffffffffffffff1660c08173ffffffffffffffffffffffffffffffffffffffff16815250508361010081815250508267ffffffffffffffff166101208167ffffffffffffffff16815250508163ffffffff166101408163ffffffff16815250508061016081815250504260028190555060008060006101000a81548160ff0219169083600181111562000151576200015062000364565b5b021790555050505050505062000393565b600080fd5b600073ffffffffffffffffffffffffffffffffffffffff82169050919050565b6000620001948262000167565b9050919050565b620001a68162000187565b8114620001b257600080fd5b50565b600081519050620001c6816200019b565b92915050565b6000819050919050565b620001e181620001cc565b8114620001ed57600080fd5b50565b6000815190506200020181620001d6565b92915050565b6000819050919050565b6200021c8162000207565b81146200022857600080fd5b50565b6000815190506200023c8162000211565b92915050565b600067ffffffffffffffff82169050919050565b620002618162000242565b81146200026d57600080fd5b50565b600081519050620002818162000256565b92915050565b600063ffffffff82169050919050565b620002a28162000287565b8114620002ae57600080fd5b50565b600081519050620002c28162000297565b92915050565b60008060008060008060c08789031215620002e857620002e762000162565b5b6000620002f889828a01620001b5565b96505060206200030b89828a01620001f0565b95505060406200031e89828a016200022b565b94505060606200033189828a0162000270565b93505060806200034489828a01620002b1565b92505060a06200035789828a01620001f0565b9150509295509295509295565b7f4e487b7100000000000000000000000000000000000000000000000000000000600052602160045260246000fd5b60805160a05160c05160e0516101005161012051610140516101605161164c620004126000396000818161085e015281816108c2015261096d0152600061075d0152600061073a01526000610719015260008181610340015261043c01526000505060006106dd01526000818161037c01526103d0015261164c6000f3fe6080604052600436106100dd5760003560e01c806353a2c19a1161007f57806391ad27b41161005957806391ad27b41461027e578063e55ae4e8146102a9578063f43b52cb146102e6578063fd6673f514610311576100dd565b806353a2c19a146101ea5780636919207d146102155780636e04ff0d14610240576100dd565b80632cfcc539116100bb5780632cfcc53914610161578063348540431461016b5780634585e33b14610196578063473f1ddc146101bf576100dd565b806309bc33a7146100e2578063115cbaf51461010d5780631fe543e314610138575b600080fd5b3480156100ee57600080fd5b506100f761033c565b6040516101049190610d1f565b60405180910390f35b34801561011957600080fd5b50610122610364565b60405161012f9190610db1565b60405180910390f35b34801561014457600080fd5b5061015f600480360381019061015a9190610f65565b61037a565b005b61016961043a565b005b34801561017757600080fd5b506101806105a7565b60405161018d9190610d1f565b60405180910390f35b3480156101a257600080fd5b506101bd60048036038101906101b8919061101c565b6105ad565b005b3480156101cb57600080fd5b506101d4610825565b6040516101e191906110aa565b60405180910390f35b3480156101f657600080fd5b506101ff61084f565b60405161020c9190610d1f565b60405180910390f35b34801561022157600080fd5b5061022a61085c565b6040516102379190610d1f565b60405180910390f35b34801561024c57600080fd5b506102676004803603810190610262919061101c565b610880565b604051610275929190611168565b60405180910390f35b34801561028a57600080fd5b50610293610969565b6040516102a09190610d1f565b60405180910390f35b3480156102b557600080fd5b506102d060048036038101906102cb9190611198565b610991565b6040516102dd91906110aa565b60405180910390f35b3480156102f257600080fd5b506102fb6109d9565b6040516103089190610d1f565b60405180910390f35b34801561031d57600080fd5b506103266109e3565b6040516103339190610d1f565b60405180910390f35b60007f0000000000000000000000000000000000000000000000000000000000000000905090565b60008060009054906101000a900460ff16905090565b7f000000000000000000000000000000000000000000000000000000000000000073ffffffffffffffffffffffffffffffffffffffff163373ffffffffffffffffffffffffffffffffffffffff161461042c57337f00000000000000000000000000000000000000000000000000000000000000006040517f1cf993f40000000000000000000000000000000000000000000000000000000081526004016104239291906111c5565b60405180910390fd5b61043682826109f0565b5050565b7f0000000000000000000000000000000000000000000000000000000000000000341015610494576040517ffd22517b00000000000000000000000000000000000000000000000000000000815260040160405180910390fd5b600060018111156104a8576104a7610d3a565b5b60008054906101000a900460ff1660018111156104c8576104c7610d3a565b5b146104ff576040517fd6e19a8d00000000000000000000000000000000000000000000000000000000815260040160405180910390fd5b6001339080600181540180825580915050600190039060005260206000200160009091909190916101000a81548173ffffffffffffffffffffffffffffffffffffffff021916908373ffffffffffffffffffffffffffffffffffffffff1602179055503373ffffffffffffffffffffffffffffffffffffffff167f0805e1d667bddb8a95f0f09880cf94f403fb596ce79928d9f29b74203ba284d460405160405180910390a2565b60025481565b60003073ffffffffffffffffffffffffffffffffffffffff16636e04ff0d6040518163ffffffff1660e01b81526004016105e690611214565b60006040518083038186803b1580156105fe57600080fd5b505afa158015610612573d6000803e3d6000fd5b505050506040513d6000823e3d601f19601f8201168201806040525081019061063b9190611306565b509050806106a8574760018054905060008054906101000a900460ff16600181111561066a57610669610d3a565b5b6040517f3a8d608600000000000000000000000000000000000000000000000000000000815260040161069f93929190611362565b60405180910390fd5b4260028190555060016000806101000a81548160ff021916908360018111156106d4576106d3610d3a565b5b021790555060007f000000000000000000000000000000000000000000000000000000000000000073ffffffffffffffffffffffffffffffffffffffff16635d3b1d307f00000000000000000000000000000000000000000000000000000000000000007f000000000000000000000000000000000000000000000000000000000000000060037f000000000000000000000000000000000000000000000000000000000000000060016040518663ffffffff1660e01b815260040161079e95949392919061144c565b602060405180830381600087803b1580156107b857600080fd5b505af11580156107cc573d6000803e3d6000fd5b505050506040513d601f19601f820116820180604052508101906107f091906114b4565b9050807fcd6e45c8998311cab7e9d4385596cac867e20a0587194b954fa3a731c93ce78b60405160405180910390a250505050565b6000600360009054906101000a900473ffffffffffffffffffffffffffffffffffffffff16905090565b6000600161ffff16905090565b7f000000000000000000000000000000000000000000000000000000000000000081565b6000606060008060009054906101000a900460ff1660018111156108a7576108a6610d3a565b5b600060018111156108bb576108ba610d3a565b5b14905060007f0000000000000000000000000000000000000000000000000000000000000000600254426108ef9190611510565b1190506000806001805490501190506000804711905082801561090f5750835b80156109185750805b80156109215750815b9550856040518060400160405280600381526020017f307830000000000000000000000000000000000000000000000000000000000081525095509550505050509250929050565b60007f0000000000000000000000000000000000000000000000000000000000000000905090565b6000600182815481106109a7576109a6611544565b5b9060005260206000200160009054906101000a900473ffffffffffffffffffffffffffffffffffffffff169050919050565b6000600254905090565b6000600180549050905090565b600060018054905082600081518110610a0c57610a0b611544565b5b6020026020010151610a1e91906115a2565b9050600060018281548110610a3657610a35611544565b5b9060005260206000200160009054906101000a900473ffffffffffffffffffffffffffffffffffffffff16905080600360006101000a81548173ffffffffffffffffffffffffffffffffffffffff021916908373ffffffffffffffffffffffffffffffffffffffff16021790555060008060006101000a81548160ff02191690836001811115610ac957610ac8610d3a565b5b0217905550600067ffffffffffffffff811115610ae957610ae8610e22565b5b604051908082528060200260200182016040528015610b175781602001602082028036833780820191505090505b5060019080519060200190610b2d929190610c5f565b506000600360009054906101000a900473ffffffffffffffffffffffffffffffffffffffff1673ffffffffffffffffffffffffffffffffffffffff1647604051610b7690611601565b60006040518083038185875af1925050503d8060008114610bb3576040519150601f19603f3d011682016040523d82523d6000602084013e610bb8565b606091505b5050905080610bf3576040517f10c8163f00000000000000000000000000000000000000000000000000000000815260040160405180910390fd5b600360009054906101000a900473ffffffffffffffffffffffffffffffffffffffff1673ffffffffffffffffffffffffffffffffffffffff167f5b690ec4a06fe979403046eaeea5b3ce38524683c3001f662c8b5a829632f7df60405160405180910390a25050505050565b828054828255906000526020600020908101928215610cd8579160200282015b82811115610cd75782518260006101000a81548173ffffffffffffffffffffffffffffffffffffffff021916908373ffffffffffffffffffffffffffffffffffffffff16021790555091602001919060010190610c7f565b5b509050610ce59190610ce9565b5090565b5b80821115610d02576000816000905550600101610cea565b5090565b6000819050919050565b610d1981610d06565b82525050565b6000602082019050610d346000830184610d10565b92915050565b7f4e487b7100000000000000000000000000000000000000000000000000000000600052602160045260246000fd5b60028110610d7a57610d79610d3a565b5b50565b6000819050610d8b82610d69565b919050565b6000610d9b82610d7d565b9050919050565b610dab81610d90565b82525050565b6000602082019050610dc66000830184610da2565b92915050565b6000604051905090565b600080fd5b600080fd5b610de981610d06565b8114610df457600080fd5b50565b600081359050610e0681610de0565b92915050565b600080fd5b6000601f19601f8301169050919050565b7f4e487b7100000000000000000000000000000000000000000000000000000000600052604160045260246000fd5b610e5a82610e11565b810181811067ffffffffffffffff82111715610e7957610e78610e22565b5b80604052505050565b6000610e8c610dcc565b9050610e988282610e51565b919050565b600067ffffffffffffffff821115610eb857610eb7610e22565b5b602082029050602081019050919050565b600080fd5b6000610ee1610edc84610e9d565b610e82565b90508083825260208201905060208402830185811115610f0457610f03610ec9565b5b835b81811015610f2d5780610f198882610df7565b845260208401935050602081019050610f06565b5050509392505050565b600082601f830112610f4c57610f4b610e0c565b5b8135610f5c848260208601610ece565b91505092915050565b60008060408385031215610f7c57610f7b610dd6565b5b6000610f8a85828601610df7565b925050602083013567ffffffffffffffff811115610fab57610faa610ddb565b5b610fb785828601610f37565b9150509250929050565b600080fd5b60008083601f840112610fdc57610fdb610e0c565b5b8235905067ffffffffffffffff811115610ff957610ff8610fc1565b5b60208301915083600182028301111561101557611014610ec9565b5b9250929050565b6000806020838503121561103357611032610dd6565b5b600083013567ffffffffffffffff81111561105157611050610ddb565b5b61105d85828601610fc6565b92509250509250929050565b600073ffffffffffffffffffffffffffffffffffffffff82169050919050565b600061109482611069565b9050919050565b6110a481611089565b82525050565b60006020820190506110bf600083018461109b565b92915050565b60008115159050919050565b6110da816110c5565b82525050565b600081519050919050565b600082825260208201905092915050565b60005b8381101561111a5780820151818401526020810190506110ff565b83811115611129576000848401525b50505050565b600061113a826110e0565b61114481856110eb565b93506111548185602086016110fc565b61115d81610e11565b840191505092915050565b600060408201905061117d60008301856110d1565b818103602083015261118f818461112f565b90509392505050565b6000602082840312156111ae576111ad610dd6565b5b60006111bc84828501610df7565b91505092915050565b60006040820190506111da600083018561109b565b6111e7602083018461109b565b9392505050565b50565b60006111fe6000836110eb565b9150611209826111ee565b600082019050919050565b6000602082019050818103600083015261122d816111f1565b9050919050565b61123d816110c5565b811461124857600080fd5b50565b60008151905061125a81611234565b92915050565b600080fd5b600067ffffffffffffffff8211156112805761127f610e22565b5b61128982610e11565b9050602081019050919050565b60006112a96112a484611265565b610e82565b9050828152602081018484840111156112c5576112c4611260565b5b6112d08482856110fc565b509392505050565b600082601f8301126112ed576112ec610e0c565b5b81516112fd848260208601611296565b91505092915050565b6000806040838503121561131d5761131c610dd6565b5b600061132b8582860161124b565b925050602083015167ffffffffffffffff81111561134c5761134b610ddb565b5b611358858286016112d8565b9150509250929050565b60006060820190506113776000830186610d10565b6113846020830185610d10565b6113916040830184610d10565b949350505050565b6000819050919050565b6113ac81611399565b82525050565b600067ffffffffffffffff82169050919050565b6113cf816113b2565b82525050565b600061ffff82169050919050565b6113ec816113d5565b82525050565b600063ffffffff82169050919050565b61140b816113f2565b82525050565b6000819050919050565b600061143661143161142c846113d5565b611411565b6113f2565b9050919050565b6114468161141b565b82525050565b600060a08201905061146160008301886113a3565b61146e60208301876113c6565b61147b60408301866113e3565b6114886060830185611402565b611495608083018461143d565b9695505050505050565b6000815190506114ae81610de0565b92915050565b6000602082840312156114ca576114c9610dd6565b5b60006114d88482850161149f565b91505092915050565b7f4e487b7100000000000000000000000000000000000000000000000000000000600052601160045260246000fd5b600061151b82610d06565b915061152683610d06565b925082821015611539576115386114e1565b5b828203905092915050565b7f4e487b7100000000000000000000000000000000000000000000000000000000600052603260045260246000fd5b7f4e487b7100000000000000000000000000000000000000000000000000000000600052601260045260246000fd5b60006115ad82610d06565b91506115b883610d06565b9250826115c8576115c7611573565b5b828206905092915050565b600081905092915050565b60006115eb6000836115d3565b91506115f6826111ee565b600082019050919050565b600061160c826115de565b915081905091905056fea2646970667358221220c1e03c0e5adde5dcf08ed301ab2f245c0b8ce12f19df7656175abf2d081566da64736f6c63430008090033",
  "devdoc": {
    "details": "This implemented Chainlink VRF v2 and Chainlink Keepers",
    "kind": "dev",
    "methods": {
      "checkUpkeep(bytes)": {
        "details": "This is the function that the Chainlink keeper nodes call they look for the `upKeepNeeded` to return true. 1. Our time interval should have passed 2. The lottery should have at least 1 player, and have some ETH 3. Our subscription is funded with LINK 4. The lottery should be in an \"open\" state."
      }
    },
    "title": "Simple Raffle contract",
    "version": 1
  },
  "userdoc": {
    "kind": "user",
    "methods": {},
    "version": 1
  },
  "storageLayout": {
    "storage": [
      {
        "astId": 339,
        "contract": "contracts/Raffle.sol:Raffle",
        "label": "s_raffleState",
        "offset": 0,
        "slot": "0",
        "type": "t_enum(RaffleState)333"
      },
      {
        "astId": 342,
        "contract": "contracts/Raffle.sol:Raffle",
        "label": "s_players",
        "offset": 0,
        "slot": "1",
        "type": "t_array(t_address_payable)dyn_storage"
      },
      {
        "astId": 362,
        "contract": "contracts/Raffle.sol:Raffle",
        "label": "s_lastTimeStamp",
        "offset": 0,
        "slot": "2",
        "type": "t_uint256"
      },
      {
        "astId": 364,
        "contract": "contracts/Raffle.sol:Raffle",
        "label": "s_recentWinner",
        "offset": 0,
        "slot": "3",
        "type": "t_address"
      }
    ],
    "types": {
      "t_address": {
        "encoding": "inplace",
        "label": "address",
        "numberOfBytes": "20"
      },
      "t_address_payable": {
        "encoding": "inplace",
        "label": "address payable",
        "numberOfBytes": "20"
      },
      "t_array(t_address_payable)dyn_storage": {
        "base": "t_address_payable",
        "encoding": "dynamic_array",
        "label": "address payable[]",
        "numberOfBytes": "32"
      },
      "t_enum(RaffleState)333": {
        "encoding": "inplace",
        "label": "enum Raffle.RaffleState",
        "numberOfBytes": "1"
      },
      "t_uint256": {
        "encoding": "inplace",
        "label": "uint256",
        "numberOfBytes": "32"
      }
    }
  }
}